:020000020000FC
:100000000C9408000C941B000C941E000C944000EF
:1000100008E00EBF0FE50DBF10E000E004BB0FEFDE
:100020000ABB929A939AC29A0AE005BF00EE0BBFF0
:1000300078940C94190041E01427189543B341308B
:1000400031F0423071F0443091F00C943F001130A7
:1000500021F001E00BBB0C943F0002E00BBB0C94C1
:100060003F00113051F002E00BBB0C943F00113007
:1000700021F001E00BBB0C943F0004E00BBB189592
:10008000C29B0C944D00113021F001E00BBB0C948D
:10009000530002E00BBB0C945300113011F00C9490
:0800A000490004E00BBB1895B8
:00000001FF
